{
  "_format": "hh-sol-artifact-1",
  "contractName": "ChallengeWaveGame",
  "sourceName": "contracts/contracts/ChallengeWaveGame.sol",
  "abi": [
    {
      "inputs": [],
      "stateMutability": "nonpayable",
      "type": "constructor"
    },
    {
      "inputs": [
        {
          "internalType": "address",
          "name": "owner",
          "type": "address"
        }
      ],
      "name": "OwnableInvalidOwner",
      "type": "error"
    },
    {
      "inputs": [
        {
          "internalType": "address",
          "name": "account",
          "type": "address"
        }
      ],
      "name": "OwnableUnauthorizedAccount",
      "type": "error"
    },
    {
      "inputs": [],
      "name": "ReentrancyGuardReentrantCall",
      "type": "error"
    },
    {
      "anonymous": false,
      "inputs": [
        {
          "indexed": true,
          "internalType": "bytes16",
          "name": "roomId",
          "type": "bytes16"
        },
        {
          "indexed": true,
          "internalType": "address",
          "name": "winner",
          "type": "address"
        },
        {
          "indexed": false,
          "internalType": "uint256",
          "name": "score",
          "type": "uint256"
        },
        {
          "indexed": false,
          "internalType": "bytes32",
          "name": "zkProof",
          "type": "bytes32"
        }
      ],
      "name": "GameEnded",
      "type": "event"
    },
    {
      "anonymous": false,
      "inputs": [
        {
          "indexed": true,
          "internalType": "bytes16",
          "name": "roomId",
          "type": "bytes16"
        },
        {
          "indexed": true,
          "internalType": "uint256",
          "name": "tokenId",
          "type": "uint256"
        },
        {
          "indexed": true,
          "internalType": "address",
          "name": "winner",
          "type": "address"
        }
      ],
      "name": "NFTTransferredToWinner",
      "type": "event"
    },
    {
      "anonymous": false,
      "inputs": [
        {
          "indexed": true,
          "internalType": "address",
          "name": "previousOwner",
          "type": "address"
        },
        {
          "indexed": true,
          "internalType": "address",
          "name": "newOwner",
          "type": "address"
        }
      ],
      "name": "OwnershipTransferred",
      "type": "event"
    },
    {
      "inputs": [
        {
          "internalType": "bytes16",
          "name": "",
          "type": "bytes16"
        }
      ],
      "name": "gameResults",
      "outputs": [
        {
          "internalType": "bytes16",
          "name": "roomId",
          "type": "bytes16"
        },
        {
          "internalType": "address",
          "name": "winner",
          "type": "address"
        },
        {
          "internalType": "uint256",
          "name": "score",
          "type": "uint256"
        },
        {
          "internalType": "bytes32",
          "name": "zkProof",
          "type": "bytes32"
        },
        {
          "internalType": "uint256",
          "name": "timestamp",
          "type": "uint256"
        }
      ],
      "stateMutability": "view",
      "type": "function"
    },
    {
      "inputs": [
        {
          "internalType": "bytes16",
          "name": "roomId",
          "type": "bytes16"
        }
      ],
      "name": "getGameResult",
      "outputs": [
        {
          "components": [
            {
              "internalType": "bytes16",
              "name": "roomId",
              "type": "bytes16"
            },
            {
              "internalType": "address",
              "name": "winner",
              "type": "address"
            },
            {
              "internalType": "uint256",
              "name": "score",
              "type": "uint256"
            },
            {
              "internalType": "bytes32",
              "name": "zkProof",
              "type": "bytes32"
            },
            {
              "internalType": "uint256",
              "name": "timestamp",
              "type": "uint256"
            }
          ],
          "internalType": "struct ChallengeWaveGame.GameResult",
          "name": "",
          "type": "tuple"
        }
      ],
      "stateMutability": "view",
      "type": "function"
    },
    {
      "inputs": [],
      "name": "nftContract",
      "outputs": [
        {
          "internalType": "address",
          "name": "",
          "type": "address"
        }
      ],
      "stateMutability": "view",
      "type": "function"
    },
    {
      "inputs": [],
      "name": "owner",
      "outputs": [
        {
          "internalType": "address",
          "name": "",
          "type": "address"
        }
      ],
      "stateMutability": "view",
      "type": "function"
    },
    {
      "inputs": [],
      "name": "renounceOwnership",
      "outputs": [],
      "stateMutability": "nonpayable",
      "type": "function"
    },
    {
      "inputs": [
        {
          "internalType": "address",
          "name": "_nftContract",
          "type": "address"
        }
      ],
      "name": "setNFTContract",
      "outputs": [],
      "stateMutability": "nonpayable",
      "type": "function"
    },
    {
      "inputs": [
        {
          "internalType": "bytes16",
          "name": "roomId",
          "type": "bytes16"
        },
        {
          "internalType": "address",
          "name": "winner",
          "type": "address"
        },
        {
          "internalType": "uint256",
          "name": "score",
          "type": "uint256"
        },
        {
          "internalType": "bytes32",
          "name": "zkProof",
          "type": "bytes32"
        }
      ],
      "name": "submitGameResult",
      "outputs": [],
      "stateMutability": "nonpayable",
      "type": "function"
    },
    {
      "inputs": [
        {
          "internalType": "address",
          "name": "newOwner",
          "type": "address"
        }
      ],
      "name": "transferOwnership",
      "outputs": [],
      "stateMutability": "nonpayable",
      "type": "function"
    }
  ],
  "bytecode": "0x608060405234801561001057600080fd5b5033600073ffffffffffffffffffffffffffffffffffffffff168173ffffffffffffffffffffffffffffffffffffffff16036100845760006040517f1e4fbdf700000000000000000000000000000000000000000000000000000000815260040161007b91906101a5565b60405180910390fd5b610093816100a060201b60201c565b50600180819055506101c0565b60008060009054906101000a900473ffffffffffffffffffffffffffffffffffffffff169050816000806101000a81548173ffffffffffffffffffffffffffffffffffffffff021916908373ffffffffffffffffffffffffffffffffffffffff1602179055508173ffffffffffffffffffffffffffffffffffffffff168173ffffffffffffffffffffffffffffffffffffffff167f8be0079c531659141344cd1fd0a4f28419497f9722a3daafe3b4186f6b6457e060405160405180910390a35050565b600073ffffffffffffffffffffffffffffffffffffffff82169050919050565b600061018f82610164565b9050919050565b61019f81610184565b82525050565b60006020820190506101ba6000830184610196565b92915050565b6112cb806101cf6000396000f3fe608060405234801561001057600080fd5b50600436106100885760003560e01c8063a7ccabdf1161005b578063a7ccabdf14610105578063d56d229d14610121578063d60654961461013f578063f2fde38b1461016f57610088565b806332cfcb0a1461008d57806361b6641c146100a9578063715018a6146100dd5780638da5cb5b146100e7575b600080fd5b6100a760048036038101906100a29190610c5d565b61018b565b005b6100c360048036038101906100be9190610cc4565b6103b1565b6040516100d4959493929190610d2d565b60405180910390f35b6100e5610414565b005b6100ef610428565b6040516100fc9190610d80565b60405180910390f35b61011f600480360381019061011a9190610d9b565b610451565b005b61012961050c565b6040516101369190610d80565b60405180910390f35b61015960048036038101906101549190610cc4565b610532565b6040516101669190610e6c565b60405180910390f35b61018960048036038101906101849190610d9b565b610636565b005b600073ffffffffffffffffffffffffffffffffffffffff16600360009054906101000a900473ffffffffffffffffffffffffffffffffffffffff1673ffffffffffffffffffffffffffffffffffffffff160361021c576040517f08c379a000000000000000000000000000000000000000000000000000000000815260040161021390610ee4565b60405180910390fd5b6040518060a00160405280856fffffffffffffffffffffffffffffffff191681526020018473ffffffffffffffffffffffffffffffffffffffff1681526020018381526020018281526020014281525060026000866fffffffffffffffffffffffffffffffff19166fffffffffffffffffffffffffffffffff1916815260200190815260200160002060008201518160000160006101000a8154816fffffffffffffffffffffffffffffffff021916908360801c021790555060208201518160010160006101000a81548173ffffffffffffffffffffffffffffffffffffffff021916908373ffffffffffffffffffffffffffffffffffffffff1602179055506040820151816002015560608201518160030155608082015181600401559050508273ffffffffffffffffffffffffffffffffffffffff16846fffffffffffffffffffffffffffffffff19167f352a3b08666a94c224e6fc0f7bbcf123e533d75bcfe91b2d635e58bd3b5788c08484604051610399929190610f04565b60405180910390a36103ab84846106bc565b50505050565b60026020528060005260406000206000915090508060000160009054906101000a900460801b908060010160009054906101000a900473ffffffffffffffffffffffffffffffffffffffff16908060020154908060030154908060040154905085565b61041c610979565b6104266000610a00565b565b60008060009054906101000a900473ffffffffffffffffffffffffffffffffffffffff16905090565b610459610979565b600073ffffffffffffffffffffffffffffffffffffffff168173ffffffffffffffffffffffffffffffffffffffff16036104c8576040517f08c379a00000000000000000000000000000000000000000000000000000000081526004016104bf90610f79565b60405180910390fd5b80600360006101000a81548173ffffffffffffffffffffffffffffffffffffffff021916908373ffffffffffffffffffffffffffffffffffffffff16021790555050565b600360009054906101000a900473ffffffffffffffffffffffffffffffffffffffff1681565b61053a610acc565b60026000836fffffffffffffffffffffffffffffffff19166fffffffffffffffffffffffffffffffff191681526020019081526020016000206040518060a00160405290816000820160009054906101000a900460801b6fffffffffffffffffffffffffffffffff19166fffffffffffffffffffffffffffffffff191681526020016001820160009054906101000a900473ffffffffffffffffffffffffffffffffffffffff1673ffffffffffffffffffffffffffffffffffffffff1673ffffffffffffffffffffffffffffffffffffffff16815260200160028201548152602001600382015481526020016004820154815250509050919050565b61063e610979565b600073ffffffffffffffffffffffffffffffffffffffff168173ffffffffffffffffffffffffffffffffffffffff16036106b05760006040517f1e4fbdf70000000000000000000000000000000000000000000000000000000081526004016106a79190610d80565b60405180910390fd5b6106b981610a00565b50565b600073ffffffffffffffffffffffffffffffffffffffff16600360009054906101000a900473ffffffffffffffffffffffffffffffffffffffff1673ffffffffffffffffffffffffffffffffffffffff160361074d576040517f08c379a000000000000000000000000000000000000000000000000000000000815260040161074490610ee4565b60405180910390fd5b6000600360009054906101000a900473ffffffffffffffffffffffffffffffffffffffff1673ffffffffffffffffffffffffffffffffffffffff16838360405160240161079b929190610f99565b6040516020818303038152906040527f31b5bea5000000000000000000000000000000000000000000000000000000007bffffffffffffffffffffffffffffffffffffffffffffffffffffffff19166020820180517bffffffffffffffffffffffffffffffffffffffffffffffffffffffff83818316178352505050506040516108259190611033565b6000604051808303816000865af19150503d8060008114610862576040519150601f19603f3d011682016040523d82523d6000602084013e610867565b606091505b505090508015610974576000600360009054906101000a900473ffffffffffffffffffffffffffffffffffffffff1673ffffffffffffffffffffffffffffffffffffffff166319c996c7856040518263ffffffff1660e01b81526004016108ce919061104a565b600060405180830381865afa1580156108eb573d6000803e3d6000fd5b505050506040513d6000823e3d601f19601f8201168201806040525081019061091491906111fe565b5050505090508273ffffffffffffffffffffffffffffffffffffffff1681856fffffffffffffffffffffffffffffffff19167f14e128c9fcb9a217757f2f4cbabf63f16ddec9e12e5fd17453515aaad3a4fca060405160405180910390a4505b505050565b610981610ac4565b73ffffffffffffffffffffffffffffffffffffffff1661099f610428565b73ffffffffffffffffffffffffffffffffffffffff16146109fe576109c2610ac4565b6040517f118cdaa70000000000000000000000000000000000000000000000000000000081526004016109f59190610d80565b60405180910390fd5b565b60008060009054906101000a900473ffffffffffffffffffffffffffffffffffffffff169050816000806101000a81548173ffffffffffffffffffffffffffffffffffffffff021916908373ffffffffffffffffffffffffffffffffffffffff1602179055508173ffffffffffffffffffffffffffffffffffffffff168173ffffffffffffffffffffffffffffffffffffffff167f8be0079c531659141344cd1fd0a4f28419497f9722a3daafe3b4186f6b6457e060405160405180910390a35050565b600033905090565b6040518060a0016040528060006fffffffffffffffffffffffffffffffff19168152602001600073ffffffffffffffffffffffffffffffffffffffff1681526020016000815260200160008019168152602001600081525090565b6000604051905090565b600080fd5b600080fd5b60007fffffffffffffffffffffffffffffffff0000000000000000000000000000000082169050919050565b610b7081610b3b565b8114610b7b57600080fd5b50565b600081359050610b8d81610b67565b92915050565b600073ffffffffffffffffffffffffffffffffffffffff82169050919050565b6000610bbe82610b93565b9050919050565b610bce81610bb3565b8114610bd957600080fd5b50565b600081359050610beb81610bc5565b92915050565b6000819050919050565b610c0481610bf1565b8114610c0f57600080fd5b50565b600081359050610c2181610bfb565b92915050565b6000819050919050565b610c3a81610c27565b8114610c4557600080fd5b50565b600081359050610c5781610c31565b92915050565b60008060008060808587031215610c7757610c76610b31565b5b6000610c8587828801610b7e565b9450506020610c9687828801610bdc565b9350506040610ca787828801610c12565b9250506060610cb887828801610c48565b91505092959194509250565b600060208284031215610cda57610cd9610b31565b5b6000610ce884828501610b7e565b91505092915050565b610cfa81610b3b565b82525050565b610d0981610bb3565b82525050565b610d1881610bf1565b82525050565b610d2781610c27565b82525050565b600060a082019050610d426000830188610cf1565b610d4f6020830187610d00565b610d5c6040830186610d0f565b610d696060830185610d1e565b610d766080830184610d0f565b9695505050505050565b6000602082019050610d956000830184610d00565b92915050565b600060208284031215610db157610db0610b31565b5b6000610dbf84828501610bdc565b91505092915050565b610dd181610b3b565b82525050565b610de081610bb3565b82525050565b610def81610bf1565b82525050565b610dfe81610c27565b82525050565b60a082016000820151610e1a6000850182610dc8565b506020820151610e2d6020850182610dd7565b506040820151610e406040850182610de6565b506060820151610e536060850182610df5565b506080820151610e666080850182610de6565b50505050565b600060a082019050610e816000830184610e04565b92915050565b600082825260208201905092915050565b7f4e465420636f6e7472616374206e6f7420736574000000000000000000000000600082015250565b6000610ece601483610e87565b9150610ed982610e98565b602082019050919050565b60006020820190508181036000830152610efd81610ec1565b9050919050565b6000604082019050610f196000830185610d0f565b610f266020830184610d1e565b9392505050565b7f496e76616c6964204e465420636f6e7472616374206164647265737300000000600082015250565b6000610f63601c83610e87565b9150610f6e82610f2d565b602082019050919050565b60006020820190508181036000830152610f9281610f56565b9050919050565b6000604082019050610fae6000830185610cf1565b610fbb6020830184610d00565b9392505050565b600081519050919050565b600081905092915050565b60005b83811015610ff6578082015181840152602081019050610fdb565b60008484015250505050565b600061100d82610fc2565b6110178185610fcd565b9350611027818560208601610fd8565b80840191505092915050565b600061103f8284611002565b915081905092915050565b600060208201905061105f6000830184610cf1565b92915050565b60008151905061107481610bfb565b92915050565b60008151905061108981610bc5565b92915050565b600080fd5b600080fd5b6000601f19601f8301169050919050565b7f4e487b7100000000000000000000000000000000000000000000000000000000600052604160045260246000fd5b6110e282611099565b810181811067ffffffffffffffff82111715611101576111006110aa565b5b80604052505050565b6000611114610b27565b905061112082826110d9565b919050565b600067ffffffffffffffff8211156111405761113f6110aa565b5b61114982611099565b9050602081019050919050565b600061116961116484611125565b61110a565b90508281526020810184848401111561118557611184611094565b5b611190848285610fd8565b509392505050565b600082601f8301126111ad576111ac61108f565b5b81516111bd848260208601611156565b91505092915050565b60008115159050919050565b6111db816111c6565b81146111e657600080fd5b50565b6000815190506111f8816111d2565b92915050565b600080600080600060a0868803121561121a57611219610b31565b5b600061122888828901611065565b95505060206112398882890161107a565b945050604061124a8882890161107a565b935050606086015167ffffffffffffffff81111561126b5761126a610b36565b5b61127788828901611198565b9250506080611288888289016111e9565b915050929550929590935056fea2646970667358221220f3ca1e19db5dee4ab65e6260665049fc84c220bb76999a0da96add39164aea3164736f6c634300081c0033",
  "linkReferences": {},
  "deployedLinkReferences": {}
}