{
  "_format": "hh-sol-artifact-1",
  "contractName": "OLYMToken",
  "sourceName": "contracts/contracts/OLYMToken.sol",
  "abi": [
    {
      "inputs": [],
      "stateMutability": "nonpayable",
      "type": "constructor"
    },
    {
      "inputs": [
        {
          "internalType": "address",
          "name": "spender",
          "type": "address"
        },
        {
          "internalType": "uint256",
          "name": "allowance",
          "type": "uint256"
        },
        {
          "internalType": "uint256",
          "name": "needed",
          "type": "uint256"
        }
      ],
      "name": "ERC20InsufficientAllowance",
      "type": "error"
    },
    {
      "inputs": [
        {
          "internalType": "address",
          "name": "sender",
          "type": "address"
        },
        {
          "internalType": "uint256",
          "name": "balance",
          "type": "uint256"
        },
        {
          "internalType": "uint256",
          "name": "needed",
          "type": "uint256"
        }
      ],
      "name": "ERC20InsufficientBalance",
      "type": "error"
    },
    {
      "inputs": [
        {
          "internalType": "address",
          "name": "approver",
          "type": "address"
        }
      ],
      "name": "ERC20InvalidApprover",
      "type": "error"
    },
    {
      "inputs": [
        {
          "internalType": "address",
          "name": "receiver",
          "type": "address"
        }
      ],
      "name": "ERC20InvalidReceiver",
      "type": "error"
    },
    {
      "inputs": [
        {
          "internalType": "address",
          "name": "sender",
          "type": "address"
        }
      ],
      "name": "ERC20InvalidSender",
      "type": "error"
    },
    {
      "inputs": [
        {
          "internalType": "address",
          "name": "spender",
          "type": "address"
        }
      ],
      "name": "ERC20InvalidSpender",
      "type": "error"
    },
    {
      "inputs": [],
      "name": "EnforcedPause",
      "type": "error"
    },
    {
      "inputs": [],
      "name": "ExpectedPause",
      "type": "error"
    },
    {
      "inputs": [
        {
          "internalType": "address",
          "name": "owner",
          "type": "address"
        }
      ],
      "name": "OwnableInvalidOwner",
      "type": "error"
    },
    {
      "inputs": [
        {
          "internalType": "address",
          "name": "account",
          "type": "address"
        }
      ],
      "name": "OwnableUnauthorizedAccount",
      "type": "error"
    },
    {
      "anonymous": false,
      "inputs": [
        {
          "indexed": true,
          "internalType": "address",
          "name": "owner",
          "type": "address"
        },
        {
          "indexed": true,
          "internalType": "address",
          "name": "spender",
          "type": "address"
        },
        {
          "indexed": false,
          "internalType": "uint256",
          "name": "value",
          "type": "uint256"
        }
      ],
      "name": "Approval",
      "type": "event"
    },
    {
      "anonymous": false,
      "inputs": [
        {
          "indexed": true,
          "internalType": "address",
          "name": "winner",
          "type": "address"
        },
        {
          "indexed": false,
          "internalType": "uint256",
          "name": "amount",
          "type": "uint256"
        }
      ],
      "name": "GameRewardDistributed",
      "type": "event"
    },
    {
      "anonymous": false,
      "inputs": [
        {
          "indexed": true,
          "internalType": "address",
          "name": "previousOwner",
          "type": "address"
        },
        {
          "indexed": true,
          "internalType": "address",
          "name": "newOwner",
          "type": "address"
        }
      ],
      "name": "OwnershipTransferred",
      "type": "event"
    },
    {
      "anonymous": false,
      "inputs": [
        {
          "indexed": false,
          "internalType": "address",
          "name": "account",
          "type": "address"
        }
      ],
      "name": "Paused",
      "type": "event"
    },
    {
      "anonymous": false,
      "inputs": [
        {
          "indexed": true,
          "internalType": "address",
          "name": "from",
          "type": "address"
        },
        {
          "indexed": false,
          "internalType": "uint256",
          "name": "amount",
          "type": "uint256"
        }
      ],
      "name": "TokensBurned",
      "type": "event"
    },
    {
      "anonymous": false,
      "inputs": [
        {
          "indexed": true,
          "internalType": "address",
          "name": "to",
          "type": "address"
        },
        {
          "indexed": false,
          "internalType": "uint256",
          "name": "amount",
          "type": "uint256"
        }
      ],
      "name": "TokensMinted",
      "type": "event"
    },
    {
      "anonymous": false,
      "inputs": [
        {
          "indexed": true,
          "internalType": "address",
          "name": "from",
          "type": "address"
        },
        {
          "indexed": true,
          "internalType": "address",
          "name": "to",
          "type": "address"
        },
        {
          "indexed": false,
          "internalType": "uint256",
          "name": "value",
          "type": "uint256"
        }
      ],
      "name": "Transfer",
      "type": "event"
    },
    {
      "anonymous": false,
      "inputs": [
        {
          "indexed": false,
          "internalType": "address",
          "name": "account",
          "type": "address"
        }
      ],
      "name": "Unpaused",
      "type": "event"
    },
    {
      "inputs": [],
      "name": "INITIAL_SUPPLY",
      "outputs": [
        {
          "internalType": "uint256",
          "name": "",
          "type": "uint256"
        }
      ],
      "stateMutability": "view",
      "type": "function"
    },
    {
      "inputs": [],
      "name": "MAX_SUPPLY",
      "outputs": [
        {
          "internalType": "uint256",
          "name": "",
          "type": "uint256"
        }
      ],
      "stateMutability": "view",
      "type": "function"
    },
    {
      "inputs": [
        {
          "internalType": "address",
          "name": "owner",
          "type": "address"
        },
        {
          "internalType": "address",
          "name": "spender",
          "type": "address"
        }
      ],
      "name": "allowance",
      "outputs": [
        {
          "internalType": "uint256",
          "name": "",
          "type": "uint256"
        }
      ],
      "stateMutability": "view",
      "type": "function"
    },
    {
      "inputs": [
        {
          "internalType": "address",
          "name": "spender",
          "type": "address"
        },
        {
          "internalType": "uint256",
          "name": "value",
          "type": "uint256"
        }
      ],
      "name": "approve",
      "outputs": [
        {
          "internalType": "bool",
          "name": "",
          "type": "bool"
        }
      ],
      "stateMutability": "nonpayable",
      "type": "function"
    },
    {
      "inputs": [
        {
          "internalType": "address",
          "name": "account",
          "type": "address"
        }
      ],
      "name": "balanceOf",
      "outputs": [
        {
          "internalType": "uint256",
          "name": "",
          "type": "uint256"
        }
      ],
      "stateMutability": "view",
      "type": "function"
    },
    {
      "inputs": [
        {
          "internalType": "uint256",
          "name": "amount",
          "type": "uint256"
        }
      ],
      "name": "burn",
      "outputs": [],
      "stateMutability": "nonpayable",
      "type": "function"
    },
    {
      "inputs": [
        {
          "internalType": "address",
          "name": "from",
          "type": "address"
        },
        {
          "internalType": "uint256",
          "name": "amount",
          "type": "uint256"
        }
      ],
      "name": "burnFrom",
      "outputs": [],
      "stateMutability": "nonpayable",
      "type": "function"
    },
    {
      "inputs": [
        {
          "internalType": "address",
          "name": "account",
          "type": "address"
        }
      ],
      "name": "canMint",
      "outputs": [
        {
          "internalType": "bool",
          "name": "",
          "type": "bool"
        }
      ],
      "stateMutability": "view",
      "type": "function"
    },
    {
      "inputs": [],
      "name": "decimals",
      "outputs": [
        {
          "internalType": "uint8",
          "name": "",
          "type": "uint8"
        }
      ],
      "stateMutability": "view",
      "type": "function"
    },
    {
      "inputs": [],
      "name": "gameContract",
      "outputs": [
        {
          "internalType": "address",
          "name": "",
          "type": "address"
        }
      ],
      "stateMutability": "view",
      "type": "function"
    },
    {
      "inputs": [],
      "name": "getRemainingMintableSupply",
      "outputs": [
        {
          "internalType": "uint256",
          "name": "",
          "type": "uint256"
        }
      ],
      "stateMutability": "view",
      "type": "function"
    },
    {
      "inputs": [],
      "name": "getTokenInfo",
      "outputs": [
        {
          "internalType": "string",
          "name": "name",
          "type": "string"
        },
        {
          "internalType": "string",
          "name": "symbol",
          "type": "string"
        },
        {
          "internalType": "uint256",
          "name": "totalSupply",
          "type": "uint256"
        },
        {
          "internalType": "uint256",
          "name": "maxSupply",
          "type": "uint256"
        },
        {
          "internalType": "address",
          "name": "gameContractAddress",
          "type": "address"
        }
      ],
      "stateMutability": "view",
      "type": "function"
    },
    {
      "inputs": [
        {
          "internalType": "address",
          "name": "to",
          "type": "address"
        },
        {
          "internalType": "uint256",
          "name": "amount",
          "type": "uint256"
        }
      ],
      "name": "mint",
      "outputs": [],
      "stateMutability": "nonpayable",
      "type": "function"
    },
    {
      "inputs": [
        {
          "internalType": "address",
          "name": "to",
          "type": "address"
        },
        {
          "internalType": "uint256",
          "name": "amount",
          "type": "uint256"
        }
      ],
      "name": "mintGameReward",
      "outputs": [],
      "stateMutability": "nonpayable",
      "type": "function"
    },
    {
      "inputs": [],
      "name": "name",
      "outputs": [
        {
          "internalType": "string",
          "name": "",
          "type": "string"
        }
      ],
      "stateMutability": "view",
      "type": "function"
    },
    {
      "inputs": [],
      "name": "owner",
      "outputs": [
        {
          "internalType": "address",
          "name": "",
          "type": "address"
        }
      ],
      "stateMutability": "view",
      "type": "function"
    },
    {
      "inputs": [],
      "name": "pause",
      "outputs": [],
      "stateMutability": "nonpayable",
      "type": "function"
    },
    {
      "inputs": [],
      "name": "paused",
      "outputs": [
        {
          "internalType": "bool",
          "name": "",
          "type": "bool"
        }
      ],
      "stateMutability": "view",
      "type": "function"
    },
    {
      "inputs": [],
      "name": "renounceOwnership",
      "outputs": [],
      "stateMutability": "nonpayable",
      "type": "function"
    },
    {
      "inputs": [
        {
          "internalType": "address",
          "name": "_gameContract",
          "type": "address"
        }
      ],
      "name": "setGameContract",
      "outputs": [],
      "stateMutability": "nonpayable",
      "type": "function"
    },
    {
      "inputs": [],
      "name": "symbol",
      "outputs": [
        {
          "internalType": "string",
          "name": "",
          "type": "string"
        }
      ],
      "stateMutability": "view",
      "type": "function"
    },
    {
      "inputs": [],
      "name": "totalSupply",
      "outputs": [
        {
          "internalType": "uint256",
          "name": "",
          "type": "uint256"
        }
      ],
      "stateMutability": "view",
      "type": "function"
    },
    {
      "inputs": [
        {
          "internalType": "address",
          "name": "to",
          "type": "address"
        },
        {
          "internalType": "uint256",
          "name": "value",
          "type": "uint256"
        }
      ],
      "name": "transfer",
      "outputs": [
        {
          "internalType": "bool",
          "name": "",
          "type": "bool"
        }
      ],
      "stateMutability": "nonpayable",
      "type": "function"
    },
    {
      "inputs": [
        {
          "internalType": "address",
          "name": "from",
          "type": "address"
        },
        {
          "internalType": "address",
          "name": "to",
          "type": "address"
        },
        {
          "internalType": "uint256",
          "name": "value",
          "type": "uint256"
        }
      ],
      "name": "transferFrom",
      "outputs": [
        {
          "internalType": "bool",
          "name": "",
          "type": "bool"
        }
      ],
      "stateMutability": "nonpayable",
      "type": "function"
    },
    {
      "inputs": [
        {
          "internalType": "address",
          "name": "newOwner",
          "type": "address"
        }
      ],
      "name": "transferOwnership",
      "outputs": [],
      "stateMutability": "nonpayable",
      "type": "function"
    },
    {
      "inputs": [],
      "name": "unpause",
      "outputs": [],
      "stateMutability": "nonpayable",
      "type": "function"
    }
  ],
  "bytecode": "0x608060405234801561001057600080fd5b50336040518060400160405280600a81526020017f4f4c594d20546f6b656e000000000000000000000000000000000000000000008152506040518060400160405280600481526020017f4f4c594d00000000000000000000000000000000000000000000000000000000815250816003908161008d9190610786565b50806004908161009d9190610786565b505050600073ffffffffffffffffffffffffffffffffffffffff168173ffffffffffffffffffffffffffffffffffffffff16036101125760006040517f1e4fbdf70000000000000000000000000000000000000000000000000000000081526004016101099190610899565b60405180910390fd5b6101218161014160201b60201c565b5061013c3369d3c21bcecceda100000061020760201b60201c565b610978565b6000600560009054906101000a900473ffffffffffffffffffffffffffffffffffffffff16905081600560006101000a81548173ffffffffffffffffffffffffffffffffffffffff021916908373ffffffffffffffffffffffffffffffffffffffff1602179055508173ffffffffffffffffffffffffffffffffffffffff168173ffffffffffffffffffffffffffffffffffffffff167f8be0079c531659141344cd1fd0a4f28419497f9722a3daafe3b4186f6b6457e060405160405180910390a35050565b600073ffffffffffffffffffffffffffffffffffffffff168273ffffffffffffffffffffffffffffffffffffffff16036102795760006040517fec442f050000000000000000000000000000000000000000000000000000000081526004016102709190610899565b60405180910390fd5b61028b6000838361028f60201b60201c565b5050565b61029d6102b360201b60201c565b6102ae8383836102fa60201b60201c565b505050565b6102c161051f60201b60201c565b156102f8576040517fd93c066500000000000000000000000000000000000000000000000000000000815260040160405180910390fd5b565b600073ffffffffffffffffffffffffffffffffffffffff168373ffffffffffffffffffffffffffffffffffffffff160361034c57806002600082825461034091906108e3565b9250508190555061041f565b60008060008573ffffffffffffffffffffffffffffffffffffffff1673ffffffffffffffffffffffffffffffffffffffff168152602001908152602001600020549050818110156103d8578381836040517fe450d38c0000000000000000000000000000000000000000000000000000000081526004016103cf93929190610926565b60405180910390fd5b8181036000808673ffffffffffffffffffffffffffffffffffffffff1673ffffffffffffffffffffffffffffffffffffffff16815260200190815260200160002081905550505b600073ffffffffffffffffffffffffffffffffffffffff168273ffffffffffffffffffffffffffffffffffffffff160361046857806002600082825403925050819055506104b5565b806000808473ffffffffffffffffffffffffffffffffffffffff1673ffffffffffffffffffffffffffffffffffffffff168152602001908152602001600020600082825401925050819055505b8173ffffffffffffffffffffffffffffffffffffffff168373ffffffffffffffffffffffffffffffffffffffff167fddf252ad1be2c89b69c2b068fc378daa952ba7f163c4a11628f55a4df523b3ef83604051610512919061095d565b60405180910390a3505050565b6000600560149054906101000a900460ff16905090565b600081519050919050565b7f4e487b7100000000000000000000000000000000000000000000000000000000600052604160045260246000fd5b7f4e487b7100000000000000000000000000000000000000000000000000000000600052602260045260246000fd5b600060028204905060018216806105b757607f821691505b6020821081036105ca576105c9610570565b5b50919050565b60008190508160005260206000209050919050565b60006020601f8301049050919050565b600082821b905092915050565b6000600883026106327fffffffffffffffffffffffffffffffffffffffffffffffffffffffffffffffff826105f5565b61063c86836105f5565b95508019841693508086168417925050509392505050565b6000819050919050565b6000819050919050565b600061068361067e61067984610654565b61065e565b610654565b9050919050565b6000819050919050565b61069d83610668565b6106b16106a98261068a565b848454610602565b825550505050565b600090565b6106c66106b9565b6106d1818484610694565b505050565b5b818110156106f5576106ea6000826106be565b6001810190506106d7565b5050565b601f82111561073a5761070b816105d0565b610714846105e5565b81016020851015610723578190505b61073761072f856105e5565b8301826106d6565b50505b505050565b600082821c905092915050565b600061075d6000198460080261073f565b1980831691505092915050565b6000610776838361074c565b9150826002028217905092915050565b61078f82610536565b67ffffffffffffffff8111156107a8576107a7610541565b5b6107b2825461059f565b6107bd8282856106f9565b600060209050601f8311600181146107f057600084156107de578287015190505b6107e8858261076a565b865550610850565b601f1984166107fe866105d0565b60005b8281101561082657848901518255600182019150602085019450602081019050610801565b86831015610843578489015161083f601f89168261074c565b8355505b6001600288020188555050505b505050505050565b600073ffffffffffffffffffffffffffffffffffffffff82169050919050565b600061088382610858565b9050919050565b61089381610878565b82525050565b60006020820190506108ae600083018461088a565b92915050565b7f4e487b7100000000000000000000000000000000000000000000000000000000600052601160045260246000fd5b60006108ee82610654565b91506108f983610654565b9250828201905080821115610911576109106108b4565b5b92915050565b61092081610654565b82525050565b600060608201905061093b600083018661088a565b6109486020830185610917565b6109556040830184610917565b949350505050565b60006020820190506109726000830184610917565b92915050565b611cdd806109876000396000f3fe608060405234801561001057600080fd5b506004361061018e5760003560e01c80635cf32b37116100de57806395d89b4111610097578063c2ba474411610071578063c2ba47441461042d578063d3f330091461045d578063dd62ed3e1461047b578063f2fde38b146104ab5761018e565b806395d89b41146103bd578063a9059cbb146103db578063abb1dc441461040b5761018e565b80635cf32b371461032157806370a082311461033f578063715018a61461036f57806379cc6790146103795780638456cb59146103955780638da5cb5b1461039f5761018e565b806332cb6b0c1161014b57806340c10f191161012557806340c10f19146102af57806342966c68146102cb5780635c29d221146102e75780635c975abb146103035761018e565b806332cb6b0c1461026b5780633f4ba83a14610289578063405ebd4d146102935761018e565b806306fdde0314610193578063095ea7b3146101b157806318160ddd146101e157806323b872dd146101ff5780632ff2e9dc1461022f578063313ce5671461024d575b600080fd5b61019b6104c7565b6040516101a8919061172b565b60405180910390f35b6101cb60048036038101906101c691906117e6565b610559565b6040516101d89190611841565b60405180910390f35b6101e961057c565b6040516101f6919061186b565b60405180910390f35b61021960048036038101906102149190611886565b610586565b6040516102269190611841565b60405180910390f35b6102376105b5565b604051610244919061186b565b60405180910390f35b6102556105c3565b60405161026291906118f5565b60405180910390f35b6102736105cc565b604051610280919061186b565b60405180910390f35b6102916105db565b005b6102ad60048036038101906102a89190611910565b6105ed565b005b6102c960048036038101906102c491906117e6565b6106a8565b005b6102e560048036038101906102e0919061193d565b61076e565b005b61030160048036038101906102fc91906117e6565b6107c8565b005b61030b610916565b6040516103189190611841565b60405180910390f35b61032961092d565b604051610336919061186b565b60405180910390f35b61035960048036038101906103549190611910565b610952565b604051610366919061186b565b60405180910390f35b61037761099a565b005b610393600480360381019061038e91906117e6565b6109ae565b005b61039d610a12565b005b6103a7610a24565b6040516103b49190611979565b60405180910390f35b6103c5610a4e565b6040516103d2919061172b565b60405180910390f35b6103f560048036038101906103f091906117e6565b610ae0565b6040516104029190611841565b60405180910390f35b610413610b03565b604051610424959493929190611994565b60405180910390f35b61044760048036038101906104429190611910565b610b4e565b6040516104549190611841565b60405180910390f35b610465610be5565b6040516104729190611979565b60405180910390f35b610495600480360381019061049091906119f5565b610c0b565b6040516104a2919061186b565b60405180910390f35b6104c560048036038101906104c09190611910565b610c92565b005b6060600380546104d690611a64565b80601f016020809104026020016040519081016040528092919081815260200182805461050290611a64565b801561054f5780601f106105245761010080835404028352916020019161054f565b820191906000526020600020905b81548152906001019060200180831161053257829003601f168201915b5050505050905090565b600080610564610d18565b9050610571818585610d20565b600191505092915050565b6000600254905090565b600080610591610d18565b905061059e858285610d32565b6105a9858585610dc7565b60019150509392505050565b69d3c21bcecceda100000081565b60006012905090565b6a084595161401484a00000081565b6105e3610ebb565b6105eb610f42565b565b6105f5610ebb565b600073ffffffffffffffffffffffffffffffffffffffff168173ffffffffffffffffffffffffffffffffffffffff1603610664576040517f08c379a000000000000000000000000000000000000000000000000000000000815260040161065b90611ae1565b60405180910390fd5b80600660006101000a81548173ffffffffffffffffffffffffffffffffffffffff021916908373ffffffffffffffffffffffffffffffffffffffff16021790555050565b6106b0610ebb565b806a084595161401484a000000816106c661057c565b6106d09190611b30565b1115610711576040517f08c379a000000000000000000000000000000000000000000000000000000000815260040161070890611bb0565b60405180910390fd5b61071b8383610fa5565b8273ffffffffffffffffffffffffffffffffffffffff167f3f2c9d57c068687834f0de942a9babb9e5acab57d516d3480a3c16ee165a427383604051610761919061186b565b60405180910390a2505050565b61077781611027565b3373ffffffffffffffffffffffffffffffffffffffff167ffd38818f5291bf0bb3a2a48aadc06ba8757865d1dabd804585338aab3009dcb6826040516107bd919061186b565b60405180910390a250565b600660009054906101000a900473ffffffffffffffffffffffffffffffffffffffff1673ffffffffffffffffffffffffffffffffffffffff163373ffffffffffffffffffffffffffffffffffffffff1614610858576040517f08c379a000000000000000000000000000000000000000000000000000000000815260040161084f90611c1c565b60405180910390fd5b806a084595161401484a0000008161086e61057c565b6108789190611b30565b11156108b9576040517f08c379a00000000000000000000000000000000000000000000000000000000081526004016108b090611bb0565b60405180910390fd5b6108c38383610fa5565b8273ffffffffffffffffffffffffffffffffffffffff167f824c2a2a49e9cfaa3b02241c2dc5368e338376d92a398ddfb7d15a56eb7c0d6183604051610909919061186b565b60405180910390a2505050565b6000600560149054906101000a900460ff16905090565b600061093761057c565b6a084595161401484a00000061094d9190611c3c565b905090565b60008060008373ffffffffffffffffffffffffffffffffffffffff1673ffffffffffffffffffffffffffffffffffffffff168152602001908152602001600020549050919050565b6109a2610ebb565b6109ac600061103b565b565b6109b6610ebb565b6109c08282611101565b8173ffffffffffffffffffffffffffffffffffffffff167ffd38818f5291bf0bb3a2a48aadc06ba8757865d1dabd804585338aab3009dcb682604051610a06919061186b565b60405180910390a25050565b610a1a610ebb565b610a22611121565b565b6000600560009054906101000a900473ffffffffffffffffffffffffffffffffffffffff16905090565b606060048054610a5d90611a64565b80601f0160208091040260200160405190810160405280929190818152602001828054610a8990611a64565b8015610ad65780601f10610aab57610100808354040283529160200191610ad6565b820191906000526020600020905b815481529060010190602001808311610ab957829003601f168201915b5050505050905090565b600080610aeb610d18565b9050610af8818585610dc7565b600191505092915050565b60608060008060008484846a084595161401484a000000600660009054906101000a900473ffffffffffffffffffffffffffffffffffffffff16945094509450945094509091929394565b6000610b58610a24565b73ffffffffffffffffffffffffffffffffffffffff168273ffffffffffffffffffffffffffffffffffffffff161480610bde5750600660009054906101000a900473ffffffffffffffffffffffffffffffffffffffff1673ffffffffffffffffffffffffffffffffffffffff168273ffffffffffffffffffffffffffffffffffffffff16145b9050919050565b600660009054906101000a900473ffffffffffffffffffffffffffffffffffffffff1681565b6000600160008473ffffffffffffffffffffffffffffffffffffffff1673ffffffffffffffffffffffffffffffffffffffff16815260200190815260200160002060008373ffffffffffffffffffffffffffffffffffffffff1673ffffffffffffffffffffffffffffffffffffffff16815260200190815260200160002054905092915050565b610c9a610ebb565b600073ffffffffffffffffffffffffffffffffffffffff168173ffffffffffffffffffffffffffffffffffffffff1603610d0c5760006040517f1e4fbdf7000000000000000000000000000000000000000000000000000000008152600401610d039190611979565b60405180910390fd5b610d158161103b565b50565b600033905090565b610d2d8383836001611184565b505050565b6000610d3e8484610c0b565b90507fffffffffffffffffffffffffffffffffffffffffffffffffffffffffffffffff811015610dc15781811015610db1578281836040517ffb8f41b2000000000000000000000000000000000000000000000000000000008152600401610da893929190611c70565b60405180910390fd5b610dc084848484036000611184565b5b50505050565b600073ffffffffffffffffffffffffffffffffffffffff168373ffffffffffffffffffffffffffffffffffffffff1603610e395760006040517f96c6fd1e000000000000000000000000000000000000000000000000000000008152600401610e309190611979565b60405180910390fd5b600073ffffffffffffffffffffffffffffffffffffffff168273ffffffffffffffffffffffffffffffffffffffff1603610eab5760006040517fec442f05000000000000000000000000000000000000000000000000000000008152600401610ea29190611979565b60405180910390fd5b610eb683838361135b565b505050565b610ec3610d18565b73ffffffffffffffffffffffffffffffffffffffff16610ee1610a24565b73ffffffffffffffffffffffffffffffffffffffff1614610f4057610f04610d18565b6040517f118cdaa7000000000000000000000000000000000000000000000000000000008152600401610f379190611979565b60405180910390fd5b565b610f4a611373565b6000600560146101000a81548160ff0219169083151502179055507f5db9ee0a495bf2e6ff9c91a7834c1ba4fdd244a5e8aa4e537bd38aeae4b073aa610f8e610d18565b604051610f9b9190611979565b60405180910390a1565b600073ffffffffffffffffffffffffffffffffffffffff168273ffffffffffffffffffffffffffffffffffffffff16036110175760006040517fec442f0500000000000000000000000000000000000000000000000000000000815260040161100e9190611979565b60405180910390fd5b6110236000838361135b565b5050565b611038611032610d18565b826113b3565b50565b6000600560009054906101000a900473ffffffffffffffffffffffffffffffffffffffff16905081600560006101000a81548173ffffffffffffffffffffffffffffffffffffffff021916908373ffffffffffffffffffffffffffffffffffffffff1602179055508173ffffffffffffffffffffffffffffffffffffffff168173ffffffffffffffffffffffffffffffffffffffff167f8be0079c531659141344cd1fd0a4f28419497f9722a3daafe3b4186f6b6457e060405160405180910390a35050565b6111138261110d610d18565b83610d32565b61111d82826113b3565b5050565b611129611435565b6001600560146101000a81548160ff0219169083151502179055507f62e78cea01bee320cd4e420270b5ea74000d11b0c9f74754ebdbfc544b05a25861116d610d18565b60405161117a9190611979565b60405180910390a1565b600073ffffffffffffffffffffffffffffffffffffffff168473ffffffffffffffffffffffffffffffffffffffff16036111f65760006040517fe602df050000000000000000000000000000000000000000000000000000000081526004016111ed9190611979565b60405180910390fd5b600073ffffffffffffffffffffffffffffffffffffffff168373ffffffffffffffffffffffffffffffffffffffff16036112685760006040517f94280d6200000000000000000000000000000000000000000000000000000000815260040161125f9190611979565b60405180910390fd5b81600160008673ffffffffffffffffffffffffffffffffffffffff1673ffffffffffffffffffffffffffffffffffffffff16815260200190815260200160002060008573ffffffffffffffffffffffffffffffffffffffff1673ffffffffffffffffffffffffffffffffffffffff168152602001908152602001600020819055508015611355578273ffffffffffffffffffffffffffffffffffffffff168473ffffffffffffffffffffffffffffffffffffffff167f8c5be1e5ebec7d5bd14f71427d1e84f3dd0314c0f7b2291e5b200ac8c7c3b9258460405161134c919061186b565b60405180910390a35b50505050565b611363611435565b61136e838383611476565b505050565b61137b610916565b6113b1576040517f8dfc202b00000000000000000000000000000000000000000000000000000000815260040160405180910390fd5b565b600073ffffffffffffffffffffffffffffffffffffffff168273ffffffffffffffffffffffffffffffffffffffff16036114255760006040517f96c6fd1e00000000000000000000000000000000000000000000000000000000815260040161141c9190611979565b60405180910390fd5b6114318260008361135b565b5050565b61143d610916565b15611474576040517fd93c066500000000000000000000000000000000000000000000000000000000815260040160405180910390fd5b565b600073ffffffffffffffffffffffffffffffffffffffff168373ffffffffffffffffffffffffffffffffffffffff16036114c85780600260008282546114bc9190611b30565b9250508190555061159b565b60008060008573ffffffffffffffffffffffffffffffffffffffff1673ffffffffffffffffffffffffffffffffffffffff16815260200190815260200160002054905081811015611554578381836040517fe450d38c00000000000000000000000000000000000000000000000000000000815260040161154b93929190611c70565b60405180910390fd5b8181036000808673ffffffffffffffffffffffffffffffffffffffff1673ffffffffffffffffffffffffffffffffffffffff16815260200190815260200160002081905550505b600073ffffffffffffffffffffffffffffffffffffffff168273ffffffffffffffffffffffffffffffffffffffff16036115e45780600260008282540392505081905550611631565b806000808473ffffffffffffffffffffffffffffffffffffffff1673ffffffffffffffffffffffffffffffffffffffff168152602001908152602001600020600082825401925050819055505b8173ffffffffffffffffffffffffffffffffffffffff168373ffffffffffffffffffffffffffffffffffffffff167fddf252ad1be2c89b69c2b068fc378daa952ba7f163c4a11628f55a4df523b3ef8360405161168e919061186b565b60405180910390a3505050565b600081519050919050565b600082825260208201905092915050565b60005b838110156116d55780820151818401526020810190506116ba565b60008484015250505050565b6000601f19601f8301169050919050565b60006116fd8261169b565b61170781856116a6565b93506117178185602086016116b7565b611720816116e1565b840191505092915050565b6000602082019050818103600083015261174581846116f2565b905092915050565b600080fd5b600073ffffffffffffffffffffffffffffffffffffffff82169050919050565b600061177d82611752565b9050919050565b61178d81611772565b811461179857600080fd5b50565b6000813590506117aa81611784565b92915050565b6000819050919050565b6117c3816117b0565b81146117ce57600080fd5b50565b6000813590506117e0816117ba565b92915050565b600080604083850312156117fd576117fc61174d565b5b600061180b8582860161179b565b925050602061181c858286016117d1565b9150509250929050565b60008115159050919050565b61183b81611826565b82525050565b60006020820190506118566000830184611832565b92915050565b611865816117b0565b82525050565b6000602082019050611880600083018461185c565b92915050565b60008060006060848603121561189f5761189e61174d565b5b60006118ad8682870161179b565b93505060206118be8682870161179b565b92505060406118cf868287016117d1565b9150509250925092565b600060ff82169050919050565b6118ef816118d9565b82525050565b600060208201905061190a60008301846118e6565b92915050565b6000602082840312156119265761192561174d565b5b60006119348482850161179b565b91505092915050565b6000602082840312156119535761195261174d565b5b6000611961848285016117d1565b91505092915050565b61197381611772565b82525050565b600060208201905061198e600083018461196a565b92915050565b600060a08201905081810360008301526119ae81886116f2565b905081810360208301526119c281876116f2565b90506119d1604083018661185c565b6119de606083018561185c565b6119eb608083018461196a565b9695505050505050565b60008060408385031215611a0c57611a0b61174d565b5b6000611a1a8582860161179b565b9250506020611a2b8582860161179b565b9150509250929050565b7f4e487b7100000000000000000000000000000000000000000000000000000000600052602260045260246000fd5b60006002820490506001821680611a7c57607f821691505b602082108103611a8f57611a8e611a35565b5b50919050565b7f496e76616c69642067616d6520636f6e74726163742061646472657373000000600082015250565b6000611acb601d836116a6565b9150611ad682611a95565b602082019050919050565b60006020820190508181036000830152611afa81611abe565b9050919050565b7f4e487b7100000000000000000000000000000000000000000000000000000000600052601160045260246000fd5b6000611b3b826117b0565b9150611b46836117b0565b9250828201905080821115611b5e57611b5d611b01565b5b92915050565b7f576f756c6420657863656564206d617820737570706c79000000000000000000600082015250565b6000611b9a6017836116a6565b9150611ba582611b64565b602082019050919050565b60006020820190508181036000830152611bc981611b8d565b9050919050565b7f4f6e6c792067616d6520636f6e74726163742063616e2063616c6c2074686973600082015250565b6000611c066020836116a6565b9150611c1182611bd0565b602082019050919050565b60006020820190508181036000830152611c3581611bf9565b9050919050565b6000611c47826117b0565b9150611c52836117b0565b9250828203905081811115611c6a57611c69611b01565b5b92915050565b6000606082019050611c85600083018661196a565b611c92602083018561185c565b611c9f604083018461185c565b94935050505056fea26469706673582212201acf2abdb31b5fb5392376c65c9c41b8d36cbff5eba210b82456912e953c527f64736f6c634300081c0033",
  "linkReferences": {},
  "deployedLinkReferences": {}
}